{
  "address": "0x564251382cFB41bbeFC93fD6d851213C5a5e26A4",
  "abi": [
    {
      "inputs": [],
      "stateMutability": "nonpayable",
      "type": "constructor"
    },
    {
      "anonymous": false,
      "inputs": [
        {
          "indexed": true,
          "internalType": "address",
          "name": "owner",
          "type": "address"
        },
        {
          "indexed": true,
          "internalType": "address",
          "name": "approved",
          "type": "address"
        },
        {
          "indexed": true,
          "internalType": "uint256",
          "name": "tokenId",
          "type": "uint256"
        }
      ],
      "name": "Approval",
      "type": "event"
    },
    {
      "anonymous": false,
      "inputs": [
        {
          "indexed": true,
          "internalType": "address",
          "name": "owner",
          "type": "address"
        },
        {
          "indexed": true,
          "internalType": "address",
          "name": "operator",
          "type": "address"
        },
        {
          "indexed": false,
          "internalType": "bool",
          "name": "approved",
          "type": "bool"
        }
      ],
      "name": "ApprovalForAll",
      "type": "event"
    },
    {
      "anonymous": false,
      "inputs": [
        {
          "indexed": false,
          "internalType": "uint256",
          "name": "_fromTokenId",
          "type": "uint256"
        },
        {
          "indexed": false,
          "internalType": "uint256",
          "name": "_toTokenId",
          "type": "uint256"
        }
      ],
      "name": "BatchMetadataUpdate",
      "type": "event"
    },
    {
      "anonymous": false,
      "inputs": [
        {
          "indexed": false,
          "internalType": "uint256",
          "name": "_tokenId",
          "type": "uint256"
        }
      ],
      "name": "MetadataUpdate",
      "type": "event"
    },
    {
      "anonymous": false,
      "inputs": [
        {
          "indexed": true,
          "internalType": "address",
          "name": "previousOwner",
          "type": "address"
        },
        {
          "indexed": true,
          "internalType": "address",
          "name": "newOwner",
          "type": "address"
        }
      ],
      "name": "OwnershipTransferred",
      "type": "event"
    },
    {
      "anonymous": false,
      "inputs": [
        {
          "indexed": true,
          "internalType": "address",
          "name": "from",
          "type": "address"
        },
        {
          "indexed": true,
          "internalType": "address",
          "name": "to",
          "type": "address"
        },
        {
          "indexed": true,
          "internalType": "uint256",
          "name": "tokenId",
          "type": "uint256"
        }
      ],
      "name": "Transfer",
      "type": "event"
    },
    {
      "inputs": [
        {
          "internalType": "address",
          "name": "to",
          "type": "address"
        },
        {
          "internalType": "uint256",
          "name": "tokenId",
          "type": "uint256"
        }
      ],
      "name": "approve",
      "outputs": [],
      "stateMutability": "nonpayable",
      "type": "function"
    },
    {
      "inputs": [
        {
          "internalType": "address",
          "name": "owner",
          "type": "address"
        }
      ],
      "name": "balanceOf",
      "outputs": [
        {
          "internalType": "uint256",
          "name": "",
          "type": "uint256"
        }
      ],
      "stateMutability": "view",
      "type": "function"
    },
    {
      "inputs": [],
      "name": "bronzePrice",
      "outputs": [
        {
          "internalType": "uint256",
          "name": "",
          "type": "uint256"
        }
      ],
      "stateMutability": "view",
      "type": "function"
    },
    {
      "inputs": [],
      "name": "bronzeSupply",
      "outputs": [
        {
          "internalType": "uint256",
          "name": "",
          "type": "uint256"
        }
      ],
      "stateMutability": "view",
      "type": "function"
    },
    {
      "inputs": [
        {
          "internalType": "uint256",
          "name": "tokenId",
          "type": "uint256"
        }
      ],
      "name": "getApproved",
      "outputs": [
        {
          "internalType": "address",
          "name": "",
          "type": "address"
        }
      ],
      "stateMutability": "view",
      "type": "function"
    },
    {
      "inputs": [],
      "name": "goldPrice",
      "outputs": [
        {
          "internalType": "uint256",
          "name": "",
          "type": "uint256"
        }
      ],
      "stateMutability": "view",
      "type": "function"
    },
    {
      "inputs": [],
      "name": "goldSupply",
      "outputs": [
        {
          "internalType": "uint256",
          "name": "",
          "type": "uint256"
        }
      ],
      "stateMutability": "view",
      "type": "function"
    },
    {
      "inputs": [
        {
          "internalType": "address",
          "name": "owner",
          "type": "address"
        },
        {
          "internalType": "address",
          "name": "operator",
          "type": "address"
        }
      ],
      "name": "isApprovedForAll",
      "outputs": [
        {
          "internalType": "bool",
          "name": "",
          "type": "bool"
        }
      ],
      "stateMutability": "view",
      "type": "function"
    },
    {
      "inputs": [
        {
          "internalType": "string",
          "name": "_tokenURI",
          "type": "string"
        }
      ],
      "name": "mintBronzeNFT",
      "outputs": [],
      "stateMutability": "payable",
      "type": "function"
    },
    {
      "inputs": [
        {
          "internalType": "string",
          "name": "_tokenURI",
          "type": "string"
        }
      ],
      "name": "mintGoldNFT",
      "outputs": [],
      "stateMutability": "payable",
      "type": "function"
    },
    {
      "inputs": [
        {
          "internalType": "string",
          "name": "_tokenURI",
          "type": "string"
        }
      ],
      "name": "mintSilverNFT",
      "outputs": [],
      "stateMutability": "payable",
      "type": "function"
    },
    {
      "inputs": [],
      "name": "name",
      "outputs": [
        {
          "internalType": "string",
          "name": "",
          "type": "string"
        }
      ],
      "stateMutability": "view",
      "type": "function"
    },
    {
      "inputs": [],
      "name": "owner",
      "outputs": [
        {
          "internalType": "address",
          "name": "",
          "type": "address"
        }
      ],
      "stateMutability": "view",
      "type": "function"
    },
    {
      "inputs": [
        {
          "internalType": "uint256",
          "name": "tokenId",
          "type": "uint256"
        }
      ],
      "name": "ownerOf",
      "outputs": [
        {
          "internalType": "address",
          "name": "",
          "type": "address"
        }
      ],
      "stateMutability": "view",
      "type": "function"
    },
    {
      "inputs": [],
      "name": "renounceOwnership",
      "outputs": [],
      "stateMutability": "nonpayable",
      "type": "function"
    },
    {
      "inputs": [
        {
          "internalType": "address",
          "name": "from",
          "type": "address"
        },
        {
          "internalType": "address",
          "name": "to",
          "type": "address"
        },
        {
          "internalType": "uint256",
          "name": "tokenId",
          "type": "uint256"
        }
      ],
      "name": "safeTransferFrom",
      "outputs": [],
      "stateMutability": "nonpayable",
      "type": "function"
    },
    {
      "inputs": [
        {
          "internalType": "address",
          "name": "from",
          "type": "address"
        },
        {
          "internalType": "address",
          "name": "to",
          "type": "address"
        },
        {
          "internalType": "uint256",
          "name": "tokenId",
          "type": "uint256"
        },
        {
          "internalType": "bytes",
          "name": "data",
          "type": "bytes"
        }
      ],
      "name": "safeTransferFrom",
      "outputs": [],
      "stateMutability": "nonpayable",
      "type": "function"
    },
    {
      "inputs": [
        {
          "internalType": "address",
          "name": "operator",
          "type": "address"
        },
        {
          "internalType": "bool",
          "name": "approved",
          "type": "bool"
        }
      ],
      "name": "setApprovalForAll",
      "outputs": [],
      "stateMutability": "nonpayable",
      "type": "function"
    },
    {
      "inputs": [],
      "name": "silverPrice",
      "outputs": [
        {
          "internalType": "uint256",
          "name": "",
          "type": "uint256"
        }
      ],
      "stateMutability": "view",
      "type": "function"
    },
    {
      "inputs": [],
      "name": "silverSupply",
      "outputs": [
        {
          "internalType": "uint256",
          "name": "",
          "type": "uint256"
        }
      ],
      "stateMutability": "view",
      "type": "function"
    },
    {
      "inputs": [
        {
          "internalType": "bytes4",
          "name": "interfaceId",
          "type": "bytes4"
        }
      ],
      "name": "supportsInterface",
      "outputs": [
        {
          "internalType": "bool",
          "name": "",
          "type": "bool"
        }
      ],
      "stateMutability": "view",
      "type": "function"
    },
    {
      "inputs": [],
      "name": "symbol",
      "outputs": [
        {
          "internalType": "string",
          "name": "",
          "type": "string"
        }
      ],
      "stateMutability": "view",
      "type": "function"
    },
    {
      "inputs": [
        {
          "internalType": "uint256",
          "name": "index",
          "type": "uint256"
        }
      ],
      "name": "tokenByIndex",
      "outputs": [
        {
          "internalType": "uint256",
          "name": "",
          "type": "uint256"
        }
      ],
      "stateMutability": "view",
      "type": "function"
    },
    {
      "inputs": [
        {
          "internalType": "address",
          "name": "owner",
          "type": "address"
        },
        {
          "internalType": "uint256",
          "name": "index",
          "type": "uint256"
        }
      ],
      "name": "tokenOfOwnerByIndex",
      "outputs": [
        {
          "internalType": "uint256",
          "name": "",
          "type": "uint256"
        }
      ],
      "stateMutability": "view",
      "type": "function"
    },
    {
      "inputs": [
        {
          "internalType": "uint256",
          "name": "tokenId",
          "type": "uint256"
        }
      ],
      "name": "tokenURI",
      "outputs": [
        {
          "internalType": "string",
          "name": "",
          "type": "string"
        }
      ],
      "stateMutability": "view",
      "type": "function"
    },
    {
      "inputs": [],
      "name": "totalSupply",
      "outputs": [
        {
          "internalType": "uint256",
          "name": "",
          "type": "uint256"
        }
      ],
      "stateMutability": "view",
      "type": "function"
    },
    {
      "inputs": [
        {
          "internalType": "address",
          "name": "from",
          "type": "address"
        },
        {
          "internalType": "address",
          "name": "to",
          "type": "address"
        },
        {
          "internalType": "uint256",
          "name": "tokenId",
          "type": "uint256"
        }
      ],
      "name": "transferFrom",
      "outputs": [],
      "stateMutability": "nonpayable",
      "type": "function"
    },
    {
      "inputs": [
        {
          "internalType": "address",
          "name": "newOwner",
          "type": "address"
        }
      ],
      "name": "transferOwnership",
      "outputs": [],
      "stateMutability": "nonpayable",
      "type": "function"
    },
    {
      "inputs": [],
      "name": "withdrawFunds",
      "outputs": [],
      "stateMutability": "nonpayable",
      "type": "function"
    }
  ],
  "transactionHash": "0xe6030512691a12225e24d1e8988c9935eab2893693aa7eb47dd674a923fb4e5a",
  "args": [],
  "numDeployments": 1,
  "solcInputHash": "ab8b2a184c60ae65a40d624b1cb8970d",
  "bytecode": "0x6080604052662386f26fc10000600c556611c37937e08000600d5566038d7ea4c68000600e55600a600f556014601055601e6011556000601255600060135560006014553480156200005057600080fd5b506040518060400160405280600681526020016512185b53919560d21b8152506040518060400160405280600381526020016248414d60e81b81525081600090816200009d9190620001ca565b506001620000ac8282620001ca565b505050620000c9620000c3620000cf60201b60201c565b620000d3565b62000296565b3390565b600b80546001600160a01b038381166001600160a01b0319831681179093556040519116919082907f8be0079c531659141344cd1fd0a4f28419497f9722a3daafe3b4186f6b6457e090600090a35050565b634e487b7160e01b600052604160045260246000fd5b600181811c908216806200015057607f821691505b6020821081036200017157634e487b7160e01b600052602260045260246000fd5b50919050565b601f821115620001c557600081815260208120601f850160051c81016020861015620001a05750805b601f850160051c820191505b81811015620001c157828155600101620001ac565b5050505b505050565b81516001600160401b03811115620001e657620001e662000125565b620001fe81620001f784546200013b565b8462000177565b602080601f8311600181146200023657600084156200021d5750858301515b600019600386901b1c1916600185901b178555620001c1565b600085815260208120601f198616915b82811015620002675788860151825594840194600190910190840162000246565b5085821015620002865787850151600019600388901b60f8161c191681555b5050505050600190811b01905550565b61221180620002a66000396000f3fe6080604052600436106101c25760003560e01c806370a08231116100f757806395d89b4111610095578063c87b56dd11610064578063c87b56dd1461049f578063e985e9c5146104bf578063f2fde38b14610508578063ff391c061461052857600080fd5b806395d89b4114610434578063a22cb46514610449578063ac0a486514610469578063b88d4fde1461047f57600080fd5b80637729512e116100d15780637729512e146103d75780637f513e3d146103ea5780638c7f44be146104005780638da5cb5b1461041657600080fd5b806370a082311461038f578063715018a6146103af57806375e66481146103c457600080fd5b806324600fc311610164578063445014041161013e57806344501404146103235780634f6ccce7146103395780636352211e146103595780636edf15491461037957600080fd5b806324600fc3146102ce5780632f745c59146102e357806342842e0e1461030357600080fd5b8063095ea7b3116101a0578063095ea7b31461025657806318160ddd146102785780631f031f0a1461029b57806323b872dd146102ae57600080fd5b806301ffc9a7146101c757806306fdde03146101fc578063081812fc1461021e575b600080fd5b3480156101d357600080fd5b506101e76101e2366004611baf565b61053e565b60405190151581526020015b60405180910390f35b34801561020857600080fd5b5061021161054f565b6040516101f39190611c1c565b34801561022a57600080fd5b5061023e610239366004611c2f565b6105e1565b6040516001600160a01b0390911681526020016101f3565b34801561026257600080fd5b50610276610271366004611c64565b610608565b005b34801561028457600080fd5b5061028d610722565b6040519081526020016101f3565b6102766102a9366004611d1a565b610746565b3480156102ba57600080fd5b506102766102c9366004611d63565b610839565b3480156102da57600080fd5b5061027661086a565b3480156102ef57600080fd5b5061028d6102fe366004611c64565b6108ae565b34801561030f57600080fd5b5061027661031e366004611d63565b610944565b34801561032f57600080fd5b5061028d600c5481565b34801561034557600080fd5b5061028d610354366004611c2f565b61095f565b34801561036557600080fd5b5061023e610374366004611c2f565b6109f2565b34801561038557600080fd5b5061028d600f5481565b34801561039b57600080fd5b5061028d6103aa366004611d9f565b610a52565b3480156103bb57600080fd5b50610276610ad8565b6102766103d2366004611d1a565b610aec565b6102766103e5366004611d1a565b610b9a565b3480156103f657600080fd5b5061028d600e5481565b34801561040c57600080fd5b5061028d60115481565b34801561042257600080fd5b50600b546001600160a01b031661023e565b34801561044057600080fd5b50610211610c59565b34801561045557600080fd5b50610276610464366004611dba565b610c68565b34801561047557600080fd5b5061028d60105481565b34801561048b57600080fd5b5061027661049a366004611df6565b610c73565b3480156104ab57600080fd5b506102116104ba366004611c2f565b610cab565b3480156104cb57600080fd5b506101e76104da366004611e72565b6001600160a01b03918216600090815260056020908152604080832093909416825291909152205460ff1690565b34801561051457600080fd5b50610276610523366004611d9f565b610cb6565b34801561053457600080fd5b5061028d600d5481565b600061054982610d2c565b92915050565b60606000805461055e90611ea5565b80601f016020809104026020016040519081016040528092919081815260200182805461058a90611ea5565b80156105d75780601f106105ac576101008083540402835291602001916105d7565b820191906000526020600020905b8154815290600101906020018083116105ba57829003601f168201915b5050505050905090565b60006105ec82610d51565b506000908152600460205260409020546001600160a01b031690565b6000610613826109f2565b9050806001600160a01b0316836001600160a01b0316036106855760405162461bcd60e51b815260206004820152602160248201527f4552433732313a20617070726f76616c20746f2063757272656e74206f776e656044820152603960f91b60648201526084015b60405180910390fd5b336001600160a01b03821614806106a157506106a181336104da565b6107135760405162461bcd60e51b815260206004820152603d60248201527f4552433732313a20617070726f76652063616c6c6572206973206e6f7420746f60448201527f6b656e206f776e6572206f7220617070726f76656420666f7220616c6c000000606482015260840161067c565b61071d8383610db0565b505050565b60006014546013546012546107379190611ef5565b6107419190611ef5565b905090565b600d543410156107a25760405162461bcd60e51b815260206004820152602160248201527f496e73756666696369656e742066756e647320666f722053696c766572204e466044820152601560fa1b606482015260840161067c565b601054601354106107f55760405162461bcd60e51b815260206004820152601860248201527f53696c766572204e4654732061726520736f6c64206f75740000000000000000604482015260640161067c565b6013805490600061080583611f08565b91905055506000610814610722565b61081f906001611ef5565b905061082b3382610e1e565b6108358183610e38565b5050565b6108433382610f03565b61085f5760405162461bcd60e51b815260040161067c90611f21565b61071d838383610f82565b6108726110f3565b600b546040516001600160a01b03909116904780156108fc02916000818181858888f193505050501580156108ab573d6000803e3d6000fd5b50565b60006108b983610a52565b821061091b5760405162461bcd60e51b815260206004820152602b60248201527f455243373231456e756d657261626c653a206f776e657220696e646578206f7560448201526a74206f6620626f756e647360a81b606482015260840161067c565b506001600160a01b03919091166000908152600660209081526040808320938352929052205490565b61071d83838360405180602001604052806000815250610c73565b600061096a60085490565b82106109cd5760405162461bcd60e51b815260206004820152602c60248201527f455243373231456e756d657261626c653a20676c6f62616c20696e646578206f60448201526b7574206f6620626f756e647360a01b606482015260840161067c565b600882815481106109e0576109e0611f6e565b90600052602060002001549050919050565b6000818152600260205260408120546001600160a01b0316806105495760405162461bcd60e51b8152602060048201526018602482015277115490cdcc8c4e881a5b9d985b1a59081d1bdad95b88125160421b604482015260640161067c565b60006001600160a01b038216610abc5760405162461bcd60e51b815260206004820152602960248201527f4552433732313a2061646472657373207a65726f206973206e6f7420612076616044820152683634b21037bbb732b960b91b606482015260840161067c565b506001600160a01b031660009081526003602052604090205490565b610ae06110f3565b610aea600061114d565b565b600c54341015610b3e5760405162461bcd60e51b815260206004820152601f60248201527f496e73756666696369656e742066756e647320666f7220476f6c64204e465400604482015260640161067c565b600f5460125410610b8a5760405162461bcd60e51b815260206004820152601660248201527511dbdb19081391951cc8185c99481cdbdb19081bdd5d60521b604482015260640161067c565b6012805490600061080583611f08565b600e54341015610bf65760405162461bcd60e51b815260206004820152602160248201527f496e73756666696369656e742066756e647320666f722042726f6e7a65204e466044820152601560fa1b606482015260840161067c565b60115460145410610c495760405162461bcd60e51b815260206004820152601860248201527f42726f6e7a65204e4654732061726520736f6c64206f75740000000000000000604482015260640161067c565b6014805490600061080583611f08565b60606001805461055e90611ea5565b61083533838361119f565b610c7d3383610f03565b610c995760405162461bcd60e51b815260040161067c90611f21565b610ca58484848461126d565b50505050565b6060610549826112a0565b610cbe6110f3565b6001600160a01b038116610d235760405162461bcd60e51b815260206004820152602660248201527f4f776e61626c653a206e6577206f776e657220697320746865207a65726f206160448201526564647265737360d01b606482015260840161067c565b6108ab8161114d565b60006001600160e01b03198216632483248360e11b14806105495750610549826113a8565b6000818152600260205260409020546001600160a01b03166108ab5760405162461bcd60e51b8152602060048201526018602482015277115490cdcc8c4e881a5b9d985b1a59081d1bdad95b88125160421b604482015260640161067c565b600081815260046020526040902080546001600160a01b0319166001600160a01b0384169081179091558190610de5826109f2565b6001600160a01b03167f8c5be1e5ebec7d5bd14f71427d1e84f3dd0314c0f7b2291e5b200ac8c7c3b92560405160405180910390a45050565b6108358282604051806020016040528060008152506113cd565b6000828152600260205260409020546001600160a01b0316610eb35760405162461bcd60e51b815260206004820152602e60248201527f45524337323155524953746f726167653a2055524920736574206f66206e6f6e60448201526d32bc34b9ba32b73a103a37b5b2b760911b606482015260840161067c565b6000828152600a60205260409020610ecb8282611fd2565b506040518281527ff8e1a15aba9398e019f0b49df1a4fde98ee17ae345cb5f6b5e2c27f5033e8ce79060200160405180910390a15050565b600080610f0f836109f2565b9050806001600160a01b0316846001600160a01b03161480610f5657506001600160a01b0380821660009081526005602090815260408083209388168352929052205460ff165b80610f7a5750836001600160a01b0316610f6f846105e1565b6001600160a01b0316145b949350505050565b826001600160a01b0316610f95826109f2565b6001600160a01b031614610fbb5760405162461bcd60e51b815260040161067c90612092565b6001600160a01b03821661101d5760405162461bcd60e51b8152602060048201526024808201527f4552433732313a207472616e7366657220746f20746865207a65726f206164646044820152637265737360e01b606482015260840161067c565b61102a8383836001611400565b826001600160a01b031661103d826109f2565b6001600160a01b0316146110635760405162461bcd60e51b815260040161067c90612092565b600081815260046020908152604080832080546001600160a01b03199081169091556001600160a01b0387811680865260038552838620805460001901905590871680865283862080546001019055868652600290945282852080549092168417909155905184937fddf252ad1be2c89b69c2b068fc378daa952ba7f163c4a11628f55a4df523b3ef91a4505050565b600b546001600160a01b03163314610aea5760405162461bcd60e51b815260206004820181905260248201527f4f776e61626c653a2063616c6c6572206973206e6f7420746865206f776e6572604482015260640161067c565b600b80546001600160a01b038381166001600160a01b0319831681179093556040519116919082907f8be0079c531659141344cd1fd0a4f28419497f9722a3daafe3b4186f6b6457e090600090a35050565b816001600160a01b0316836001600160a01b0316036112005760405162461bcd60e51b815260206004820152601960248201527f4552433732313a20617070726f766520746f2063616c6c657200000000000000604482015260640161067c565b6001600160a01b03838116600081815260056020908152604080832094871680845294825291829020805460ff191686151590811790915591519182527f17307eab39ab6107e8899845ad3d59bd9653f200f220920489ca2b5937696c31910160405180910390a3505050565b611278848484610f82565b6112848484848461140c565b610ca55760405162461bcd60e51b815260040161067c906120d7565b60606112ab82610d51565b6000828152600a6020526040812080546112c490611ea5565b80601f01602080910402602001604051908101604052809291908181526020018280546112f090611ea5565b801561133d5780601f106113125761010080835404028352916020019161133d565b820191906000526020600020905b81548152906001019060200180831161132057829003601f168201915b50505050509050600061135b60408051602081019091526000815290565b9050805160000361136d575092915050565b81511561139f578082604051602001611387929190612129565b60405160208183030381529060405292505050919050565b610f7a8461150d565b60006001600160e01b0319821663780e9d6360e01b1480610549575061054982611581565b6113d783836115d1565b6113e4600084848461140c565b61071d5760405162461bcd60e51b815260040161067c906120d7565b610ca58484848461176a565b60006001600160a01b0384163b1561150257604051630a85bd0160e11b81526001600160a01b0385169063150b7a0290611450903390899088908890600401612158565b6020604051808303816000875af192505050801561148b575060408051601f3d908101601f1916820190925261148891810190612195565b60015b6114e8573d8080156114b9576040519150601f19603f3d011682016040523d82523d6000602084013e6114be565b606091505b5080516000036114e05760405162461bcd60e51b815260040161067c906120d7565b805181602001fd5b6001600160e01b031916630a85bd0160e11b149050610f7a565b506001949350505050565b606061151882610d51565b600061152f60408051602081019091526000815290565b9050600081511161154f576040518060200160405280600081525061157a565b806115598461189e565b60405160200161156a929190612129565b6040516020818303038152906040525b9392505050565b60006001600160e01b031982166380ac58cd60e01b14806115b257506001600160e01b03198216635b5e139f60e01b145b8061054957506301ffc9a760e01b6001600160e01b0319831614610549565b6001600160a01b0382166116275760405162461bcd60e51b815260206004820181905260248201527f4552433732313a206d696e7420746f20746865207a65726f2061646472657373604482015260640161067c565b6000818152600260205260409020546001600160a01b03161561168c5760405162461bcd60e51b815260206004820152601c60248201527f4552433732313a20746f6b656e20616c7265616479206d696e74656400000000604482015260640161067c565b61169a600083836001611400565b6000818152600260205260409020546001600160a01b0316156116ff5760405162461bcd60e51b815260206004820152601c60248201527f4552433732313a20746f6b656e20616c7265616479206d696e74656400000000604482015260640161067c565b6001600160a01b038216600081815260036020908152604080832080546001019055848352600290915280822080546001600160a01b0319168417905551839291907fddf252ad1be2c89b69c2b068fc378daa952ba7f163c4a11628f55a4df523b3ef908290a45050565b60018111156117d95760405162461bcd60e51b815260206004820152603560248201527f455243373231456e756d657261626c653a20636f6e7365637574697665207472604482015274185b9cd9995c9cc81b9bdd081cdd5c1c1bdc9d1959605a1b606482015260840161067c565b816001600160a01b0385166118355761183081600880546000838152600960205260408120829055600182018355919091527ff3f7a9fe364faab93b216da50a3214154f22a0a2b415b23a84c8169e8b636ee30155565b611858565b836001600160a01b0316856001600160a01b031614611858576118588582611931565b6001600160a01b0384166118745761186f816119ce565b611897565b846001600160a01b0316846001600160a01b031614611897576118978482611a7d565b5050505050565b606060006118ab83611ac1565b600101905060008167ffffffffffffffff8111156118cb576118cb611c8e565b6040519080825280601f01601f1916602001820160405280156118f5576020820181803683370190505b5090508181016020015b600019016f181899199a1a9b1b9c1cb0b131b232b360811b600a86061a8153600a85049450846118ff57509392505050565b6000600161193e84610a52565b61194891906121b2565b60008381526007602052604090205490915080821461199b576001600160a01b03841660009081526006602090815260408083208584528252808320548484528184208190558352600790915290208190555b5060009182526007602090815260408084208490556001600160a01b039094168352600681528383209183525290812055565b6008546000906119e0906001906121b2565b60008381526009602052604081205460088054939450909284908110611a0857611a08611f6e565b906000526020600020015490508060088381548110611a2957611a29611f6e565b6000918252602080832090910192909255828152600990915260408082208490558582528120556008805480611a6157611a616121c5565b6001900381819060005260206000200160009055905550505050565b6000611a8883610a52565b6001600160a01b039093166000908152600660209081526040808320868452825280832085905593825260079052919091209190915550565b60008072184f03e93ff9f4daa797ed6e38ed64bf6a1f0160401b8310611b005772184f03e93ff9f4daa797ed6e38ed64bf6a1f0160401b830492506040015b6d04ee2d6d415b85acef81000000008310611b2c576d04ee2d6d415b85acef8100000000830492506020015b662386f26fc100008310611b4a57662386f26fc10000830492506010015b6305f5e1008310611b62576305f5e100830492506008015b6127108310611b7657612710830492506004015b60648310611b88576064830492506002015b600a83106105495760010192915050565b6001600160e01b0319811681146108ab57600080fd5b600060208284031215611bc157600080fd5b813561157a81611b99565b60005b83811015611be7578181015183820152602001611bcf565b50506000910152565b60008151808452611c08816020860160208601611bcc565b601f01601f19169290920160200192915050565b60208152600061157a6020830184611bf0565b600060208284031215611c4157600080fd5b5035919050565b80356001600160a01b0381168114611c5f57600080fd5b919050565b60008060408385031215611c7757600080fd5b611c8083611c48565b946020939093013593505050565b634e487b7160e01b600052604160045260246000fd5b600067ffffffffffffffff80841115611cbf57611cbf611c8e565b604051601f8501601f19908116603f01168101908282118183101715611ce757611ce7611c8e565b81604052809350858152868686011115611d0057600080fd5b858560208301376000602087830101525050509392505050565b600060208284031215611d2c57600080fd5b813567ffffffffffffffff811115611d4357600080fd5b8201601f81018413611d5457600080fd5b610f7a84823560208401611ca4565b600080600060608486031215611d7857600080fd5b611d8184611c48565b9250611d8f60208501611c48565b9150604084013590509250925092565b600060208284031215611db157600080fd5b61157a82611c48565b60008060408385031215611dcd57600080fd5b611dd683611c48565b915060208301358015158114611deb57600080fd5b809150509250929050565b60008060008060808587031215611e0c57600080fd5b611e1585611c48565b9350611e2360208601611c48565b925060408501359150606085013567ffffffffffffffff811115611e4657600080fd5b8501601f81018713611e5757600080fd5b611e6687823560208401611ca4565b91505092959194509250565b60008060408385031215611e8557600080fd5b611e8e83611c48565b9150611e9c60208401611c48565b90509250929050565b600181811c90821680611eb957607f821691505b602082108103611ed957634e487b7160e01b600052602260045260246000fd5b50919050565b634e487b7160e01b600052601160045260246000fd5b8082018082111561054957610549611edf565b600060018201611f1a57611f1a611edf565b5060010190565b6020808252602d908201527f4552433732313a2063616c6c6572206973206e6f7420746f6b656e206f776e6560408201526c1c881bdc88185c1c1c9bdd9959609a1b606082015260800190565b634e487b7160e01b600052603260045260246000fd5b601f82111561071d57600081815260208120601f850160051c81016020861015611fab5750805b601f850160051c820191505b81811015611fca57828155600101611fb7565b505050505050565b815167ffffffffffffffff811115611fec57611fec611c8e565b61200081611ffa8454611ea5565b84611f84565b602080601f831160018114612035576000841561201d5750858301515b600019600386901b1c1916600185901b178555611fca565b600085815260208120601f198616915b8281101561206457888601518255948401946001909101908401612045565b50858210156120825787850151600019600388901b60f8161c191681555b5050505050600190811b01905550565b60208082526025908201527f4552433732313a207472616e736665722066726f6d20696e636f72726563742060408201526437bbb732b960d91b606082015260800190565b60208082526032908201527f4552433732313a207472616e7366657220746f206e6f6e20455243373231526560408201527131b2b4bb32b91034b6b83632b6b2b73a32b960711b606082015260800190565b6000835161213b818460208801611bcc565b83519083019061214f818360208801611bcc565b01949350505050565b6001600160a01b038581168252841660208201526040810183905260806060820181905260009061218b90830184611bf0565b9695505050505050565b6000602082840312156121a757600080fd5b815161157a81611b99565b8181038181111561054957610549611edf565b634e487b7160e01b600052603160045260246000fdfea2646970667358221220124351aa596bfae10290ad64e8f93247cd19462034f99021f4de112c1f4c6d2964736f6c63430008110033",
  "devdoc": {
    "kind": "dev",
    "methods": {
      "approve(address,uint256)": {
        "details": "See {IERC721-approve}."
      },
      "balanceOf(address)": {
        "details": "See {IERC721-balanceOf}."
      },
      "getApproved(uint256)": {
        "details": "See {IERC721-getApproved}."
      },
      "isApprovedForAll(address,address)": {
        "details": "See {IERC721-isApprovedForAll}."
      },
      "name()": {
        "details": "See {IERC721Metadata-name}."
      },
      "owner()": {
        "details": "Returns the address of the current owner."
      },
      "ownerOf(uint256)": {
        "details": "See {IERC721-ownerOf}."
      },
      "renounceOwnership()": {
        "details": "Leaves the contract without owner. It will not be possible to call `onlyOwner` functions. Can only be called by the current owner. NOTE: Renouncing ownership will leave the contract without an owner, thereby disabling any functionality that is only available to the owner."
      },
      "safeTransferFrom(address,address,uint256)": {
        "details": "See {IERC721-safeTransferFrom}."
      },
      "safeTransferFrom(address,address,uint256,bytes)": {
        "details": "See {IERC721-safeTransferFrom}."
      },
      "setApprovalForAll(address,bool)": {
        "details": "See {IERC721-setApprovalForAll}."
      },
      "symbol()": {
        "details": "See {IERC721Metadata-symbol}."
      },
      "tokenByIndex(uint256)": {
        "details": "See {IERC721Enumerable-tokenByIndex}."
      },
      "tokenOfOwnerByIndex(address,uint256)": {
        "details": "See {IERC721Enumerable-tokenOfOwnerByIndex}."
      },
      "totalSupply()": {
        "details": "See {IERC721Enumerable-totalSupply}."
      },
      "transferFrom(address,address,uint256)": {
        "details": "See {IERC721-transferFrom}."
      },
      "transferOwnership(address)": {
        "details": "Transfers ownership of the contract to a new account (`newOwner`). Can only be called by the current owner."
      }
    },
    "version": 1
  },
  "userdoc": {
    "kind": "user",
    "methods": {},
    "version": 1
  },
  "storageLayout": {
    "storage": [
      {
        "astId": 166,
        "contract": "contracts/HamNFT.sol:HamNFT",
        "label": "_name",
        "offset": 0,
        "slot": "0",
        "type": "t_string_storage"
      },
      {
        "astId": 168,
        "contract": "contracts/HamNFT.sol:HamNFT",
        "label": "_symbol",
        "offset": 0,
        "slot": "1",
        "type": "t_string_storage"
      },
      {
        "astId": 172,
        "contract": "contracts/HamNFT.sol:HamNFT",
        "label": "_owners",
        "offset": 0,
        "slot": "2",
        "type": "t_mapping(t_uint256,t_address)"
      },
      {
        "astId": 176,
        "contract": "contracts/HamNFT.sol:HamNFT",
        "label": "_balances",
        "offset": 0,
        "slot": "3",
        "type": "t_mapping(t_address,t_uint256)"
      },
      {
        "astId": 180,
        "contract": "contracts/HamNFT.sol:HamNFT",
        "label": "_tokenApprovals",
        "offset": 0,
        "slot": "4",
        "type": "t_mapping(t_uint256,t_address)"
      },
      {
        "astId": 186,
        "contract": "contracts/HamNFT.sol:HamNFT",
        "label": "_operatorApprovals",
        "offset": 0,
        "slot": "5",
        "type": "t_mapping(t_address,t_mapping(t_address,t_bool))"
      },
      {
        "astId": 1216,
        "contract": "contracts/HamNFT.sol:HamNFT",
        "label": "_ownedTokens",
        "offset": 0,
        "slot": "6",
        "type": "t_mapping(t_address,t_mapping(t_uint256,t_uint256))"
      },
      {
        "astId": 1220,
        "contract": "contracts/HamNFT.sol:HamNFT",
        "label": "_ownedTokensIndex",
        "offset": 0,
        "slot": "7",
        "type": "t_mapping(t_uint256,t_uint256)"
      },
      {
        "astId": 1223,
        "contract": "contracts/HamNFT.sol:HamNFT",
        "label": "_allTokens",
        "offset": 0,
        "slot": "8",
        "type": "t_array(t_uint256)dyn_storage"
      },
      {
        "astId": 1227,
        "contract": "contracts/HamNFT.sol:HamNFT",
        "label": "_allTokensIndex",
        "offset": 0,
        "slot": "9",
        "type": "t_mapping(t_uint256,t_uint256)"
      },
      {
        "astId": 1571,
        "contract": "contracts/HamNFT.sol:HamNFT",
        "label": "_tokenURIs",
        "offset": 0,
        "slot": "10",
        "type": "t_mapping(t_uint256,t_string_storage)"
      },
      {
        "astId": 7,
        "contract": "contracts/HamNFT.sol:HamNFT",
        "label": "_owner",
        "offset": 0,
        "slot": "11",
        "type": "t_address"
      },
      {
        "astId": 3453,
        "contract": "contracts/HamNFT.sol:HamNFT",
        "label": "goldPrice",
        "offset": 0,
        "slot": "12",
        "type": "t_uint256"
      },
      {
        "astId": 3456,
        "contract": "contracts/HamNFT.sol:HamNFT",
        "label": "silverPrice",
        "offset": 0,
        "slot": "13",
        "type": "t_uint256"
      },
      {
        "astId": 3459,
        "contract": "contracts/HamNFT.sol:HamNFT",
        "label": "bronzePrice",
        "offset": 0,
        "slot": "14",
        "type": "t_uint256"
      },
      {
        "astId": 3462,
        "contract": "contracts/HamNFT.sol:HamNFT",
        "label": "goldSupply",
        "offset": 0,
        "slot": "15",
        "type": "t_uint256"
      },
      {
        "astId": 3465,
        "contract": "contracts/HamNFT.sol:HamNFT",
        "label": "silverSupply",
        "offset": 0,
        "slot": "16",
        "type": "t_uint256"
      },
      {
        "astId": 3468,
        "contract": "contracts/HamNFT.sol:HamNFT",
        "label": "bronzeSupply",
        "offset": 0,
        "slot": "17",
        "type": "t_uint256"
      },
      {
        "astId": 3471,
        "contract": "contracts/HamNFT.sol:HamNFT",
        "label": "goldMinted",
        "offset": 0,
        "slot": "18",
        "type": "t_uint256"
      },
      {
        "astId": 3474,
        "contract": "contracts/HamNFT.sol:HamNFT",
        "label": "silverMinted",
        "offset": 0,
        "slot": "19",
        "type": "t_uint256"
      },
      {
        "astId": 3477,
        "contract": "contracts/HamNFT.sol:HamNFT",
        "label": "bronzeMinted",
        "offset": 0,
        "slot": "20",
        "type": "t_uint256"
      }
    ],
    "types": {
      "t_address": {
        "encoding": "inplace",
        "label": "address",
        "numberOfBytes": "20"
      },
      "t_array(t_uint256)dyn_storage": {
        "base": "t_uint256",
        "encoding": "dynamic_array",
        "label": "uint256[]",
        "numberOfBytes": "32"
      },
      "t_bool": {
        "encoding": "inplace",
        "label": "bool",
        "numberOfBytes": "1"
      },
      "t_mapping(t_address,t_bool)": {
        "encoding": "mapping",
        "key": "t_address",
        "label": "mapping(address => bool)",
        "numberOfBytes": "32",
        "value": "t_bool"
      },
      "t_mapping(t_address,t_mapping(t_address,t_bool))": {
        "encoding": "mapping",
        "key": "t_address",
        "label": "mapping(address => mapping(address => bool))",
        "numberOfBytes": "32",
        "value": "t_mapping(t_address,t_bool)"
      },
      "t_mapping(t_address,t_mapping(t_uint256,t_uint256))": {
        "encoding": "mapping",
        "key": "t_address",
        "label": "mapping(address => mapping(uint256 => uint256))",
        "numberOfBytes": "32",
        "value": "t_mapping(t_uint256,t_uint256)"
      },
      "t_mapping(t_address,t_uint256)": {
        "encoding": "mapping",
        "key": "t_address",
        "label": "mapping(address => uint256)",
        "numberOfBytes": "32",
        "value": "t_uint256"
      },
      "t_mapping(t_uint256,t_address)": {
        "encoding": "mapping",
        "key": "t_uint256",
        "label": "mapping(uint256 => address)",
        "numberOfBytes": "32",
        "value": "t_address"
      },
      "t_mapping(t_uint256,t_string_storage)": {
        "encoding": "mapping",
        "key": "t_uint256",
        "label": "mapping(uint256 => string)",
        "numberOfBytes": "32",
        "value": "t_string_storage"
      },
      "t_mapping(t_uint256,t_uint256)": {
        "encoding": "mapping",
        "key": "t_uint256",
        "label": "mapping(uint256 => uint256)",
        "numberOfBytes": "32",
        "value": "t_uint256"
      },
      "t_string_storage": {
        "encoding": "bytes",
        "label": "string",
        "numberOfBytes": "32"
      },
      "t_uint256": {
        "encoding": "inplace",
        "label": "uint256",
        "numberOfBytes": "32"
      }
    }
  }
}